:1000000012C0189518951895189518951895189563
:100010001895189518951895189518951895189578
:100020001895189518958FED8DBFC0ECE8EB4E2E06
:10003000DD275D2EA89584B7082E877F84BF88E1D1
:10004000992781BD91BDEEE7F0E0A0E6B0E08827FA
:100050008D933197E9F783E389B980E082B988E12C
:100060008AB96624B898B99ABA9AE2EBF6E0BED19A
:10007000C3D1EEEBF6E0BAD1BFD1BED1E8EDF6E0E8
:10008000B5D1BAD1B9D1E0E0F0E0A7E694E00AD367
:10009000E0E0F0E0A0E194E005D344EF51E060E05F
:1000A00070E0B1D1A3E60D931D932D933D93E4E051
:1000B000F0E0A3E794E0F6D285D1A0E68C9300911E
:1000C0006000013009F004C081D1A1E68C9301C029
:1000D00044C000916100013309F014C0A0EAB0E00F
:1000E000E7E6F0E048D27AD1EAEEF6E07FD1A0EA86
:1000F000B0E0E3E6F0E03FD271D1EEEFF6E076D18A
:100100007BD12BC0023309F00BC0A0EAB0E0E3E7DB
:10011000F0E031D263D1E8E0F7E068D16DD11DC0E5
:10012000033309F002C0C1C018C0043309F002C093
:1001300005C113C0003309F010C0ECE1F7E056D15F
:100140005BD1EEE2F7E052D157D1E2E4F7E04ED1D5
:1001500053D1ECE5F7E04AD14FD1A6E30C9100FB77
:1001600081E00EF480E08F93A2E68C9187FB81E022
:100170000EF480E09F918923882309F428C07091B0
:100180006200706870936200A3E6F3D0A3E60D915D
:100190001D912D913C9144EF51E060E070E038D129
:1001A000A7E64D935D936D937D9383E390E0ADE679
:1001B0008D939C93A9E70D911C91003050E0150799
:1001C00009F005C089E097E0A9E78D939C93B09B67
:1001D00005C0709162007F7770936200ADE60D916B
:1001E0001C91003050E0150714F009F001C002C066
:1001F000ADE6CCD0ADE60D911C91023350E0150771
:1002000009F001C0C29AADE60D911C91003050E09A
:10021000150709F001C0C298ABE60D911C910030A2
:1002200050E0150714F009F001C002C0ABE6AED0F3
:10023000ABE60D911C91043F51E0150709F001C098
:10024000C19AABE60D911C91003050E0150709F002
:1002500026C0C198A9E70D911C91003050E0150708
:1002600014F009F001C002C0A9E790D0A9E70D91F0
:100270001C91013050E0150709F00CC0E0E0F0E0FF
:10028000A7E694E07BE7FDD1E4E0F0E0A3E794E0AB
:100290007BE7F7D181ED97E0ABE68D939C9381E00E
:1002A00090E02ED109CFF894FFCFA6D0EAE7F7E08F
:1002B0009DD0A2D0E8EAF7E099D0ECE06ED0A0EAB9
:1002C000B0E0A8D1AFE60D931D932D933D9340E090
:1002D00050E060E070E0AFE60D911D912D913C91F2
:1002E00034D109F005C0E6ECF7E080D085D035CFF9
:1002F000AFE60D911D912D913C9144EF51E060E0EE
:1003000070E081D0A3E60D931D932D933D93AFE64E
:100310000D911D912D913C91A7E60D931D932D9369
:100320003C93A0EAB0E0E7E6F0E025D157D0E8ED55
:10033000F7E05CD061D011CFF894FFCFA7E60D9124
:100340001D912D913C91A3E70D931D932D933C930B
:10035000A7E6F0D0A3E6EED0A0EAB0E0E3E7F0E055
:100360000AD13CD0E2EEF7E041D046D0F6CEF89488
:10037000FFCF0D911D912D913C910F5F1F4F2F4F7E
:100380003F4F3C932E931E930E930895ED91FC9155
:10039000E150F040FC93EE930895A0EAB0E01AD04B
:1003A0008D3039F0EE23D9F38D93EA9563FE27D093
:1003B000F6CF63FC04C08DE022D08AE020D08827ED
:1003C0008C93089581E05F9B8827089588275F9B21
:1003D000089500C05F9BFECF8CB10895A0EAB0E005
:1003E0008D91882311F00BD0FBCF08959DD0802DE7
:1003F00011F005D0FBCF08958DE001D08AE05D9B20
:10040000FECF8CB9089550D00AD000FC05D00895D5
:100410004BD020D001F8F9CF52D05AD00895842F74
:10042000952FA62FB72F4427552766277727F1E268
:10043000889409C020F4480F591F6A1F7B1F7695C6
:100440006795579547953795279517950795FA9589
:1004500089F70895842F952FA62FB72FE894452B61
:10046000462B472B11F468940895402F512F622F8B
:10047000732F0027112722273327F0E2440F551F3F
:10048000661F771F001F111F221F331F081B190B28
:100490002A0B3B0B416028F4080F191F2A1F3B1F32
:1004A0004E7FFA9559F708950024E89477FF02C02B
:1004B00006D0689400F809D010F80124089512D0ED
:1004C0004F5F5F4F6F4F7F4F0895E89437FF089558
:1004D00000951095209530950F5F1F4F2F4F3F4F80
:1004E000689408954095509560957095089531975A
:1004F000F1F70895689462F80895E89462F8089511
:10050000EF93FF93EE27E82BE92B31F0E0EDF7E0D6
:100510003197F1F70197D1F7FF91EF91089501918C
:100520001191219130810895C89531960020089548
:1005300082E001C084E099279D938A95E9F70895A8
:10054000040F151F261F371F0895041715072607C8
:1005500037070895000F111F221F331F08950095BC
:100560001095209530950F5F1F4F2F4F3F4F0895E7
:10057000019110810BC0D3DF0BC00191108117FFD7
:1005800005C03FEF2FEF04C000811127222733273A
:1005900037FF03C0E4DF8DE28D93CF92DF92EF92BD
:1005A000AA24BB24CC24DD24EE2440E2EAE0FF2789
:1005B00055E093E38081890F87FD9F7083FD907FD5
:1005C000891B81935A95A9F7C5DFAA1CBB1CCC1CBB
:1005D000DD1CEE1C4A9551F7E894EFE0FF2782916D
:1005E0000CD0EB30E0F71EF068948A2D0AD08827F3
:1005F0008D93EF90DF90CF900895982F829501D042
:10060000892F8F70805D26F0803309F408956894F7
:100610008D93089500271127222733271DD08A3371
:1006200028F4803318F005D015D0F9CF0EF497CF09
:10063000089580538F93402F512F622F732F8ADF9D
:1006400089DF7EDF87DF8F919927080F191F291F08
:10065000391F08958D910895E894FCDF8032E9F305
:100660008B32D9F38930C9F38D3211F46894F2CF0B
:100670000895E199FECFEEBB3196089591E001C057
:1006800092E07B3751F47FB7F894F3DF8D918DBB07
:10069000E29AE19A9A95C9F77FBF7727089591E08A
:1006A00001C092E0E6DFE09A8DB38D939A95D1F781
:1006B000089550434D5520762E312E30000075435D
:1006C00074726C20446576656C6F706D656E742015
:1006D0003037303430303100507265737320302041
:1006E000666F722068656C700000206B5720637520
:1006F0007272656E742075736167652028002070C2
:10070000756C736573290000206B572070726576D5
:10071000696F7573207573616765000031202D2046
:1007200043757272656E742075736167650032205F
:100730002D2050726576696F7573207573616765DA
:10074000000033202D20456E746572207374617231
:1007500074696E6720706F696E74000034202D20FC
:100760004D6F76652063757272656E7420746F20AC
:1007700070726576696F7573000043757272656E8D
:10078000742075736167652077696C6C20626520E1
:1007900064656C657465642120283020746F206363
:1007A000616E63656C290000456E74657220737418
:1007B000617274696E6720706F696E7420696E2053
:1007C0006B57203A20004F7065726174696F6E201C
:1007D00061626F7274656400206B57207361766587
:1007E0006400206B57206D6F76656420746F2070F5
:0807F000726576696F757300F4
:00000001FF
